{
  "_format": "hh-sol-artifact-1",
  "contractName": "NFTToken",
  "sourceName": "contracts/NFTToken.sol",
  "abi": [
    {
      "inputs": [],
      "stateMutability": "nonpayable",
      "type": "constructor"
    },
    {
      "anonymous": false,
      "inputs": [
        {
          "indexed": true,
          "internalType": "address",
          "name": "owner",
          "type": "address"
        },
        {
          "indexed": true,
          "internalType": "address",
          "name": "approved",
          "type": "address"
        },
        {
          "indexed": true,
          "internalType": "uint256",
          "name": "tokenId",
          "type": "uint256"
        }
      ],
      "name": "Approval",
      "type": "event"
    },
    {
      "anonymous": false,
      "inputs": [
        {
          "indexed": true,
          "internalType": "address",
          "name": "owner",
          "type": "address"
        },
        {
          "indexed": true,
          "internalType": "address",
          "name": "operator",
          "type": "address"
        },
        {
          "indexed": false,
          "internalType": "bool",
          "name": "approved",
          "type": "bool"
        }
      ],
      "name": "ApprovalForAll",
      "type": "event"
    },
    {
      "anonymous": false,
      "inputs": [
        {
          "indexed": true,
          "internalType": "address",
          "name": "from",
          "type": "address"
        },
        {
          "indexed": true,
          "internalType": "address",
          "name": "to",
          "type": "address"
        },
        {
          "indexed": true,
          "internalType": "uint256",
          "name": "tokenId",
          "type": "uint256"
        }
      ],
      "name": "Transfer",
      "type": "event"
    },
    {
      "inputs": [
        {
          "internalType": "uint256",
          "name": "",
          "type": "uint256"
        }
      ],
      "name": "Items",
      "outputs": [
        {
          "internalType": "uint256",
          "name": "id",
          "type": "uint256"
        },
        {
          "internalType": "address",
          "name": "creator",
          "type": "address"
        },
        {
          "internalType": "string",
          "name": "uri",
          "type": "string"
        }
      ],
      "stateMutability": "view",
      "type": "function"
    },
    {
      "inputs": [
        {
          "internalType": "address",
          "name": "to",
          "type": "address"
        },
        {
          "internalType": "uint256",
          "name": "tokenId",
          "type": "uint256"
        }
      ],
      "name": "approve",
      "outputs": [],
      "stateMutability": "nonpayable",
      "type": "function"
    },
    {
      "inputs": [
        {
          "internalType": "address",
          "name": "owner",
          "type": "address"
        }
      ],
      "name": "balanceOf",
      "outputs": [
        {
          "internalType": "uint256",
          "name": "",
          "type": "uint256"
        }
      ],
      "stateMutability": "view",
      "type": "function"
    },
    {
      "inputs": [
        {
          "internalType": "uint256",
          "name": "tokenId",
          "type": "uint256"
        }
      ],
      "name": "getApproved",
      "outputs": [
        {
          "internalType": "address",
          "name": "",
          "type": "address"
        }
      ],
      "stateMutability": "view",
      "type": "function"
    },
    {
      "inputs": [
        {
          "internalType": "address",
          "name": "owner",
          "type": "address"
        },
        {
          "internalType": "address",
          "name": "operator",
          "type": "address"
        }
      ],
      "name": "isApprovedForAll",
      "outputs": [
        {
          "internalType": "bool",
          "name": "",
          "type": "bool"
        }
      ],
      "stateMutability": "view",
      "type": "function"
    },
    {
      "inputs": [],
      "name": "marketplace",
      "outputs": [
        {
          "internalType": "address",
          "name": "",
          "type": "address"
        }
      ],
      "stateMutability": "view",
      "type": "function"
    },
    {
      "inputs": [
        {
          "internalType": "string",
          "name": "uri",
          "type": "string"
        }
      ],
      "name": "mint",
      "outputs": [
        {
          "internalType": "uint256",
          "name": "",
          "type": "uint256"
        }
      ],
      "stateMutability": "nonpayable",
      "type": "function"
    },
    {
      "inputs": [],
      "name": "name",
      "outputs": [
        {
          "internalType": "string",
          "name": "",
          "type": "string"
        }
      ],
      "stateMutability": "view",
      "type": "function"
    },
    {
      "inputs": [
        {
          "internalType": "uint256",
          "name": "tokenId",
          "type": "uint256"
        }
      ],
      "name": "ownerOf",
      "outputs": [
        {
          "internalType": "address",
          "name": "",
          "type": "address"
        }
      ],
      "stateMutability": "view",
      "type": "function"
    },
    {
      "inputs": [
        {
          "internalType": "address",
          "name": "from",
          "type": "address"
        },
        {
          "internalType": "address",
          "name": "to",
          "type": "address"
        },
        {
          "internalType": "uint256",
          "name": "tokenId",
          "type": "uint256"
        }
      ],
      "name": "safeTransferFrom",
      "outputs": [],
      "stateMutability": "nonpayable",
      "type": "function"
    },
    {
      "inputs": [
        {
          "internalType": "address",
          "name": "from",
          "type": "address"
        },
        {
          "internalType": "address",
          "name": "to",
          "type": "address"
        },
        {
          "internalType": "uint256",
          "name": "tokenId",
          "type": "uint256"
        },
        {
          "internalType": "bytes",
          "name": "_data",
          "type": "bytes"
        }
      ],
      "name": "safeTransferFrom",
      "outputs": [],
      "stateMutability": "nonpayable",
      "type": "function"
    },
    {
      "inputs": [
        {
          "internalType": "address",
          "name": "operator",
          "type": "address"
        },
        {
          "internalType": "bool",
          "name": "approved",
          "type": "bool"
        }
      ],
      "name": "setApprovalForAll",
      "outputs": [],
      "stateMutability": "nonpayable",
      "type": "function"
    },
    {
      "inputs": [
        {
          "internalType": "address",
          "name": "market",
          "type": "address"
        }
      ],
      "name": "setMarketplace",
      "outputs": [],
      "stateMutability": "nonpayable",
      "type": "function"
    },
    {
      "inputs": [
        {
          "internalType": "bytes4",
          "name": "interfaceId",
          "type": "bytes4"
        }
      ],
      "name": "supportsInterface",
      "outputs": [
        {
          "internalType": "bool",
          "name": "",
          "type": "bool"
        }
      ],
      "stateMutability": "view",
      "type": "function"
    },
    {
      "inputs": [],
      "name": "symbol",
      "outputs": [
        {
          "internalType": "string",
          "name": "",
          "type": "string"
        }
      ],
      "stateMutability": "view",
      "type": "function"
    },
    {
      "inputs": [
        {
          "internalType": "uint256",
          "name": "index",
          "type": "uint256"
        }
      ],
      "name": "tokenByIndex",
      "outputs": [
        {
          "internalType": "uint256",
          "name": "",
          "type": "uint256"
        }
      ],
      "stateMutability": "view",
      "type": "function"
    },
    {
      "inputs": [
        {
          "internalType": "address",
          "name": "owner",
          "type": "address"
        },
        {
          "internalType": "uint256",
          "name": "index",
          "type": "uint256"
        }
      ],
      "name": "tokenOfOwnerByIndex",
      "outputs": [
        {
          "internalType": "uint256",
          "name": "",
          "type": "uint256"
        }
      ],
      "stateMutability": "view",
      "type": "function"
    },
    {
      "inputs": [
        {
          "internalType": "uint256",
          "name": "tokenId",
          "type": "uint256"
        }
      ],
      "name": "tokenURI",
      "outputs": [
        {
          "internalType": "string",
          "name": "",
          "type": "string"
        }
      ],
      "stateMutability": "view",
      "type": "function"
    },
    {
      "inputs": [],
      "name": "totalSupply",
      "outputs": [
        {
          "internalType": "uint256",
          "name": "",
          "type": "uint256"
        }
      ],
      "stateMutability": "view",
      "type": "function"
    },
    {
      "inputs": [
        {
          "internalType": "address",
          "name": "from",
          "type": "address"
        },
        {
          "internalType": "address",
          "name": "to",
          "type": "address"
        },
        {
          "internalType": "uint256",
          "name": "tokenId",
          "type": "uint256"
        }
      ],
      "name": "transferFrom",
      "outputs": [],
      "stateMutability": "nonpayable",
      "type": "function"
    }
  ],
  "bytecode": "0x60806040523480156200001157600080fd5b50604080518082018252600881526727232a2a37b5b2b760c11b6020808301918252835180850190945260048452634152544b60e01b9084015281519192916200005e916000916200007d565b508051620000749060019060208401906200007d565b50505062000160565b8280546200008b9062000123565b90600052602060002090601f016020900481019282620000af5760008555620000fa565b82601f10620000ca57805160ff1916838001178555620000fa565b82800160010185558215620000fa579182015b82811115620000fa578251825591602001919060010190620000dd565b50620001089291506200010c565b5090565b5b808211156200010857600081556001016200010d565b600181811c908216806200013857607f821691505b602082108114156200015a57634e487b7160e01b600052602260045260246000fd5b50919050565b6119ea80620001706000396000f3fe608060405234801561001057600080fd5b506004361061012c5760003560e01c80636352211e116100ad578063abc8c7af11610071578063abc8c7af1461029f578063b88d4fde146102b2578063c87b56dd146102c5578063d85d3d27146102d8578063e985e9c5146102eb57600080fd5b80636352211e1461022e57806370a082311461024157806373ad6c2d1461025457806395d89b4114610284578063a22cb4651461028c57600080fd5b806318160ddd116100f457806318160ddd146101d057806323b872dd146101e25780632f745c59146101f557806342842e0e146102085780634f6ccce71461021b57600080fd5b806301ffc9a71461013157806306fdde0314610159578063081812fc1461016e578063095ea7b31461019957806317b47cc4146101ae575b600080fd5b61014461013f3660046116fe565b610327565b60405190151581526020015b60405180910390f35b610161610352565b604051610150919061181c565b61018161017c36600461177c565b6103e4565b6040516001600160a01b039091168152602001610150565b6101ac6101a73660046116d5565b61047e565b005b6101c16101bc36600461177c565b610594565b604051610150939291906118d2565b6008545b604051908152602001610150565b6101ac6101f03660046115e7565b610649565b6101d46102033660046116d5565b61067a565b6101ac6102163660046115e7565b610710565b6101d461022936600461177c565b61072b565b61018161023c36600461177c565b6107cc565b6101d461024f366004611594565b610843565b6101ac610262366004611594565b600b80546001600160a01b0319166001600160a01b0392909216919091179055565b6101616108ca565b6101ac61029a36600461169b565b6108d9565b600b54610181906001600160a01b031681565b6101ac6102c0366004611622565b6108e8565b6101616102d336600461177c565b610920565b6101d46102e6366004611736565b610a42565b6101446102f93660046115b5565b6001600160a01b03918216600090815260056020908152604080832093909416825291909152205460ff1690565b60006001600160e01b0319821663780e9d6360e01b148061034c575061034c82610af1565b92915050565b60606000805461036190611934565b80601f016020809104026020016040519081016040528092919081815260200182805461038d90611934565b80156103da5780601f106103af576101008083540402835291602001916103da565b820191906000526020600020905b8154815290600101906020018083116103bd57829003601f168201915b5050505050905090565b6000818152600260205260408120546001600160a01b03166104625760405162461bcd60e51b815260206004820152602c60248201527f4552433732313a20617070726f76656420717565727920666f72206e6f6e657860448201526b34b9ba32b73a103a37b5b2b760a11b60648201526084015b60405180910390fd5b506000908152600460205260409020546001600160a01b031690565b6000610489826107cc565b9050806001600160a01b0316836001600160a01b031614156104f75760405162461bcd60e51b815260206004820152602160248201527f4552433732313a20617070726f76616c20746f2063757272656e74206f776e656044820152603960f91b6064820152608401610459565b336001600160a01b0382161480610513575061051381336102f9565b6105855760405162461bcd60e51b815260206004820152603860248201527f4552433732313a20617070726f76652063616c6c6572206973206e6f74206f7760448201527f6e6572206e6f7220617070726f76656420666f7220616c6c00000000000000006064820152608401610459565b61058f8383610b41565b505050565b600c6020526000908152604090208054600182015460028301805492936001600160a01b03909216926105c690611934565b80601f01602080910402602001604051908101604052809291908181526020018280546105f290611934565b801561063f5780601f106106145761010080835404028352916020019161063f565b820191906000526020600020905b81548152906001019060200180831161062257829003601f168201915b5050505050905083565b6106533382610baf565b61066f5760405162461bcd60e51b815260040161045990611881565b61058f838383610ca6565b600061068583610843565b82106106e75760405162461bcd60e51b815260206004820152602b60248201527f455243373231456e756d657261626c653a206f776e657220696e646578206f7560448201526a74206f6620626f756e647360a81b6064820152608401610459565b506001600160a01b03919091166000908152600660209081526040808320938352929052205490565b61058f838383604051806020016040528060008152506108e8565b600061073660085490565b82106107995760405162461bcd60e51b815260206004820152602c60248201527f455243373231456e756d657261626c653a20676c6f62616c20696e646578206f60448201526b7574206f6620626f756e647360a01b6064820152608401610459565b600882815481106107ba57634e487b7160e01b600052603260045260246000fd5b90600052602060002001549050919050565b6000818152600260205260408120546001600160a01b03168061034c5760405162461bcd60e51b815260206004820152602960248201527f4552433732313a206f776e657220717565727920666f72206e6f6e657869737460448201526832b73a103a37b5b2b760b91b6064820152608401610459565b60006001600160a01b0382166108ae5760405162461bcd60e51b815260206004820152602a60248201527f4552433732313a2062616c616e636520717565727920666f7220746865207a65604482015269726f206164647265737360b01b6064820152608401610459565b506001600160a01b031660009081526003602052604090205490565b60606001805461036190611934565b6108e4338383610e4d565b5050565b6108f23383610baf565b61090e5760405162461bcd60e51b815260040161045990611881565b61091a84848484610f1c565b50505050565b6000818152600260205260409020546060906001600160a01b03166109a15760405162461bcd60e51b815260206004820152603160248201527f45524337323155524953746f726167653a2055524920717565727920666f72206044820152703737b732bc34b9ba32b73a103a37b5b2b760791b6064820152608401610459565b6000828152600c6020526040902060020180546109bd90611934565b80601f01602080910402602001604051908101604052809291908181526020018280546109e990611934565b8015610a365780601f10610a0b57610100808354040283529160200191610a36565b820191906000526020600020905b815481529060010190602001808311610a1957829003601f168201915b50505050509050919050565b6000610a52600a80546001019055565b6000610a5d600a5490565b9050610a693382610f4f565b600b54610a7f906001600160a01b03168261047e565b604080516060810182528281523360208083019182528284018781526000868152600c8352949094208351815591516001830180546001600160a01b0319166001600160a01b039092169190911790559251805192939192610ae79260028501920190611469565b5091949350505050565b60006001600160e01b031982166380ac58cd60e01b1480610b2257506001600160e01b03198216635b5e139f60e01b145b8061034c57506301ffc9a760e01b6001600160e01b031983161461034c565b600081815260046020526040902080546001600160a01b0319166001600160a01b0384169081179091558190610b76826107cc565b6001600160a01b03167f8c5be1e5ebec7d5bd14f71427d1e84f3dd0314c0f7b2291e5b200ac8c7c3b92560405160405180910390a45050565b6000818152600260205260408120546001600160a01b0316610c285760405162461bcd60e51b815260206004820152602c60248201527f4552433732313a206f70657261746f7220717565727920666f72206e6f6e657860448201526b34b9ba32b73a103a37b5b2b760a11b6064820152608401610459565b6000610c33836107cc565b9050806001600160a01b0316846001600160a01b03161480610c6e5750836001600160a01b0316610c63846103e4565b6001600160a01b0316145b80610c9e57506001600160a01b0380821660009081526005602090815260408083209388168352929052205460ff165b949350505050565b826001600160a01b0316610cb9826107cc565b6001600160a01b031614610d1d5760405162461bcd60e51b815260206004820152602560248201527f4552433732313a207472616e736665722066726f6d20696e636f72726563742060448201526437bbb732b960d91b6064820152608401610459565b6001600160a01b038216610d7f5760405162461bcd60e51b8152602060048201526024808201527f4552433732313a207472616e7366657220746f20746865207a65726f206164646044820152637265737360e01b6064820152608401610459565b610d8a838383610f69565b610d95600082610b41565b6001600160a01b0383166000908152600360205260408120805460019290610dbe90849061191d565b90915550506001600160a01b0382166000908152600360205260408120805460019290610dec908490611905565b909155505060008181526002602052604080822080546001600160a01b0319166001600160a01b0386811691821790925591518493918716917fddf252ad1be2c89b69c2b068fc378daa952ba7f163c4a11628f55a4df523b3ef91a4505050565b816001600160a01b0316836001600160a01b03161415610eaf5760405162461bcd60e51b815260206004820152601960248201527f4552433732313a20617070726f766520746f2063616c6c6572000000000000006044820152606401610459565b6001600160a01b03838116600081815260056020908152604080832094871680845294825291829020805460ff191686151590811790915591519182527f17307eab39ab6107e8899845ad3d59bd9653f200f220920489ca2b5937696c31910160405180910390a3505050565b610f27848484610ca6565b610f3384848484611021565b61091a5760405162461bcd60e51b81526004016104599061182f565b6108e482826040518060200160405280600081525061112e565b6001600160a01b038316610fc457610fbf81600880546000838152600960205260408120829055600182018355919091527ff3f7a9fe364faab93b216da50a3214154f22a0a2b415b23a84c8169e8b636ee30155565b610fe7565b816001600160a01b0316836001600160a01b031614610fe757610fe78382611161565b6001600160a01b038216610ffe5761058f816111fe565b826001600160a01b0316826001600160a01b03161461058f5761058f82826112d7565b60006001600160a01b0384163b1561112357604051630a85bd0160e11b81526001600160a01b0385169063150b7a02906110659033908990889088906004016117df565b602060405180830381600087803b15801561107f57600080fd5b505af19250505080156110af575060408051601f3d908101601f191682019092526110ac9181019061171a565b60015b611109573d8080156110dd576040519150601f19603f3d011682016040523d82523d6000602084013e6110e2565b606091505b5080516111015760405162461bcd60e51b81526004016104599061182f565b805181602001fd5b6001600160e01b031916630a85bd0160e11b149050610c9e565b506001949350505050565b611138838361131b565b6111456000848484611021565b61058f5760405162461bcd60e51b81526004016104599061182f565b6000600161116e84610843565b611178919061191d565b6000838152600760205260409020549091508082146111cb576001600160a01b03841660009081526006602090815260408083208584528252808320548484528184208190558352600790915290208190555b5060009182526007602090815260408084208490556001600160a01b039094168352600681528383209183525290812055565b6008546000906112109060019061191d565b6000838152600960205260408120546008805493945090928490811061124657634e487b7160e01b600052603260045260246000fd5b90600052602060002001549050806008838154811061127557634e487b7160e01b600052603260045260246000fd5b60009182526020808320909101929092558281526009909152604080822084905585825281205560088054806112bb57634e487b7160e01b600052603160045260246000fd5b6001900381819060005260206000200160009055905550505050565b60006112e283610843565b6001600160a01b039093166000908152600660209081526040808320868452825280832085905593825260079052919091209190915550565b6001600160a01b0382166113715760405162461bcd60e51b815260206004820181905260248201527f4552433732313a206d696e7420746f20746865207a65726f20616464726573736044820152606401610459565b6000818152600260205260409020546001600160a01b0316156113d65760405162461bcd60e51b815260206004820152601c60248201527f4552433732313a20746f6b656e20616c7265616479206d696e746564000000006044820152606401610459565b6113e260008383610f69565b6001600160a01b038216600090815260036020526040812080546001929061140b908490611905565b909155505060008181526002602052604080822080546001600160a01b0319166001600160a01b03861690811790915590518392907fddf252ad1be2c89b69c2b068fc378daa952ba7f163c4a11628f55a4df523b3ef908290a45050565b82805461147590611934565b90600052602060002090601f01602090048101928261149757600085556114dd565b82601f106114b057805160ff19168380011785556114dd565b828001600101855582156114dd579182015b828111156114dd5782518255916020019190600101906114c2565b506114e99291506114ed565b5090565b5b808211156114e957600081556001016114ee565b600067ffffffffffffffff8084111561151d5761151d611985565b604051601f8501601f19908116603f0116810190828211818310171561154557611545611985565b8160405280935085815286868601111561155e57600080fd5b858560208301376000602087830101525050509392505050565b80356001600160a01b038116811461158f57600080fd5b919050565b6000602082840312156115a5578081fd5b6115ae82611578565b9392505050565b600080604083850312156115c7578081fd5b6115d083611578565b91506115de60208401611578565b90509250929050565b6000806000606084860312156115fb578081fd5b61160484611578565b925061161260208501611578565b9150604084013590509250925092565b60008060008060808587031215611637578081fd5b61164085611578565b935061164e60208601611578565b925060408501359150606085013567ffffffffffffffff811115611670578182fd5b8501601f81018713611680578182fd5b61168f87823560208401611502565b91505092959194509250565b600080604083850312156116ad578182fd5b6116b683611578565b9150602083013580151581146116ca578182fd5b809150509250929050565b600080604083850312156116e7578182fd5b6116f083611578565b946020939093013593505050565b60006020828403121561170f578081fd5b81356115ae8161199b565b60006020828403121561172b578081fd5b81516115ae8161199b565b600060208284031215611747578081fd5b813567ffffffffffffffff81111561175d578182fd5b8201601f8101841361176d578182fd5b610c9e84823560208401611502565b60006020828403121561178d578081fd5b5035919050565b60008151808452815b818110156117b95760208185018101518683018201520161179d565b818111156117ca5782602083870101525b50601f01601f19169290920160200192915050565b6001600160a01b038581168252841660208201526040810183905260806060820181905260009061181290830184611794565b9695505050505050565b6020815260006115ae6020830184611794565b60208082526032908201527f4552433732313a207472616e7366657220746f206e6f6e20455243373231526560408201527131b2b4bb32b91034b6b83632b6b2b73a32b960711b606082015260800190565b60208082526031908201527f4552433732313a207472616e736665722063616c6c6572206973206e6f74206f6040820152701ddb995c881b9bdc88185c1c1c9bdd9959607a1b606082015260800190565b8381526001600160a01b03831660208201526060604082018190526000906118fc90830184611794565b95945050505050565b600082198211156119185761191861196f565b500190565b60008282101561192f5761192f61196f565b500390565b600181811c9082168061194857607f821691505b6020821081141561196957634e487b7160e01b600052602260045260246000fd5b50919050565b634e487b7160e01b600052601160045260246000fd5b634e487b7160e01b600052604160045260246000fd5b6001600160e01b0319811681146119b157600080fd5b5056fea26469706673582212209c7f1ada8bb05401fca590bf47249cd4eaafbe72ca6185cfea8aad0a792a33d864736f6c63430008040033",
  "linkReferences": {},
  "deployedLinkReferences": {}
}